:020000040000FA
:1000000080380020E9210000C7250100D52100002B
:10001000D5210000D5210000D521000000000000FE
:100020000000000000000000000000009D23000010
:10003000D52100000000000069230000D521000048
:100040002925000029250000292500002925000078
:100050002925000029250000292500002925000068
:100060002925000029250000292500002925000058
:100070002925000029250000292500002925000048
:100080002925000029250000292500002925000038
:100090002925000029250000292500002925000028
:1000A0002925000029250000292500002925000018
:1000B0002925000029250000292500002925000008
:1000C00029250000292500002925000029250000F8
:1000D00029250000292500002925000029250000E8
:1000E00029250000292500002925000029250000D8
:1000F00029250000292500002925000029250000C8
:1001000053B94AB9002908BF00281CBF4FF0FF317E
:100110004FF0FF3000F00CB8ADF1080C6DE904CEE3
:1001200000F022F8DDF804E0DDE9022304B07047B6
:10013000704700BF10F8012B11F8013B012A28BFBE
:100140009A42F7D0D01A7047034611F8012B03F8F2
:10015000012B002AF9D17047034613F8012B002A1E
:10016000FBD1181A013870472DE9F04786468C46B6
:100170000846089E154674461946002B40F0C2807A
:100180008542B2FA82F245D94AB1C2F1200300FA9F
:1001900002FC2EFA03F3954043EA0C0C94404FEA1C
:1001A000154EA8B2BCFBFEF8230C0EFB18CC08FBC6
:1001B00000F943EA0C43994528D9EB1808F1FF37B9
:1001C00004D2994502D9A8F102072B44A3EB0903F5
:1001D000A4B2B3FBFEFC0EFB1C330CFB00F044EAA4
:1001E0000344A04214D92C190CF1FF3304D2A042CD
:1001F00002D9ACF102032C44241A43EA07401EB191
:10020000D440002334607360BDE8F0874746DDE7E3
:100210006346F1E792BB431B01214FEA154EAFB293
:10022000B3FBFEFC200C0EFB1C330CFB07F840EA72
:100230000343984562D9EB180CF1FF3004D298457E
:1002400002D9ACF102002B44A3EB0803A4B2B3FB28
:10025000FEFC0EFB1C330CFB07F744EA0344A742E9
:100260004ED92C190CF1FF3304D2A74202D9ACF1BC
:1002700002032C44E41B43EA0040C0E7C2F1200320
:1002800020FA03F1954090402EFA03F303434FEA1E
:10029000154EAFB2B1FBFEFC0EFB1C10190C0CFB93
:1002A00007F841EA0041884504FA02F422D96918A6
:1002B0000CF1FF3004D2884502D9ACF10200294488
:1002C000A1EB08019BB2B1FBFEFC0EFB1C110CFB69
:1002D00007F743EA01439F420ED9EB180CF1FF31B7
:1002E00004D29F4202D9ACF102012B44DB1B41EA4C
:1002F000004192E76046E3E76146F7E76046A3E71F
:100300006346B7E7834206D916B9002108467BE762
:10031000C6E900E0F9E7B3FA83F78FB9834201D366
:10032000724508D8BEEB020460EB030301209C4633
:100330001EB9002168E73846FAE7C6E9004CF8E73D
:10034000C7F1200CBB4022FA0CF41C432EFA0CF12E
:1003500020FA0CF3B84001434FEA14490EFA07F5AE
:10036000B3FBF9F81FFA84FE09FB18300B0C08FBED
:100370000EFA43EA00439A4502FA07F240D9E3181D
:1003800008F1FF3004D29A4502D9A8F102002344B3
:10039000A3EB0A0389B2B3FBF9F809FB183308FB96
:1003A0000EFE41EA03418E452CD9611808F1FF3356
:1003B00004D28E4502D9A8F10203214443EA004049
:1003C000A0FB0298A1EB0E014145CE46434602D365
:1003D00006D14D4504D2B9EB020E68EB0403013897
:1003E000002EA6D0B5EB0E0261EB030101FA0CFC66
:1003F00022FA07F34CEA0303F940C6E9003198E713
:100400004046C5E74346D9E77FB50024CDE901441E
:10041000CDF80B401B4D28461AF057F830B91A4A50
:100420001A48012112F005F804B070BD0DF03AF839
:1004300004F0C2FD0EF050FB154906460EF0D6FE44
:10044000234622460921304613F09AFC0EF030F87C
:10045000AB685B680BB1284698470E4E00246425B4
:10046000B4FBF5F205FB12431BB9314601A810F0AD
:10047000AFFD0EF01DF84FF4A470002110F0CCF881
:100480000134EDE7D0AA010072B7010064AC0100AD
:1004900092B70100240502002DE9F04F91B08407C6
:1004A000009302F004030293C2F3C20303F10103B9
:1004B000DDF86890039205460E46059340F0BA8138
:1004C000041D30B1072909D86FF01B0011B0BDE839
:1004D000F08F01F00706341DC6F10806009B4FF0AF
:1004E0000008591E4FF0040A4FF0FF330193CDF876
:1004F00010804746C34653460DB1009A22600598C6
:10050000002800F3E8809848009A824203D3974875
:100510008242C0F0E080039AA4EB050E92074FEAF6
:100520009E0000F103810F2F00F2B180002D00F03A
:10053000058107F140020DEB020C019A0CF8200C2A
:100540000CF8102C049801300490E7E07A285DD86C
:100550004B280ED8472859D829282DD8252852D0DD
:1005600054D820287AD02338D0F1000B4BEB000B65
:1005700074E04C382E2849D8DFE800F0704848482D
:1005800048484848484848484B48484848484848E8
:100590004859484B4B595959704B6D487048184B46
:1005A000184848827F4B48484B487F0000204FF056
:1005B000000B4FF0040A38E02A38C0B2012202FAD8
:1005C00000F010EA0E0F49D110F0625C2FD110EA52
:1005D000020B43D06046013C5444B4FBFAF40AFBDE
:1005E00004F4002D61D0A3EB050CA444B4453FF600
:1005F0006BAF002868D1042B47D159F8043B236026
:10060000043404232AE0019A013A01924FF0000BCE
:1006100024E011F8010C6C2834D111F8023C0020C0
:100620006C2B8346C5D14FF0080A5346D3E709F136
:10063000070929F007090734F9E802AB24F0070499
:1006400035B106982044B0423FF63EAFC4E900AB56
:1006500008344FF0000B4FF0080A534611F8010F11
:10066000002878D0BBF1000F7FF470AF2528F5D1BA
:10067000019B013301934FF0010B4FF0040AECE7AB
:10068000584694E700208346A5E7082B02D06FF078
:1006900015001BE709F1070929F00709F9E802230A
:1006A000C4E9002308340823D8E768B9042B02D131
:1006B00009F10409A4E7082BE9D109F1070929F098
:1006C000070909F10809EDE7059A013A059259F879
:1006D000042B009210E7039A900720D5A4EB050E97
:1006E0004FEA9E004FF0010CBEF5007FCFD20F2FD6
:1006F000CDD8F5B107F140020DEB020EC0B2019A60
:100700000EF8200C0EF8102CBCF1000F3FF41AAFBD
:1007100060F07F000EF8200C08F101080137C5F1E8
:100720000802043406924FF6DA7E97E74FF0000C89
:10073000DAE7BCF1000F01D00136EFE7029802368C
:100740000028EBD10098CDE90631FFF705FDDDE982
:1007500006310644E2E7631BB3F5806F97D23DB9DB
:10076000A6F10804E018B1E6E4A90100E00D0200DA
:10077000029A28609B082B709DF81030C2B1EB7074
:1007800085F80280B8F1000F05D008A80022C5F155
:10079000010C97420ED1C5F101030DF120094FF074
:1007A000000A01930DF1300B574512D1601B8DE605
:1007B0006B70E5E710F8013B190608D504EB0C0E49
:1007C000B64503F07F033FF67FAE04F8013B0132EC
:1007D000DFE7B8F1000F03D099F90020002A17DBFA
:1007E000029BD3B11AF80B2004F8012B0022019BC5
:1007F00098182044B0423FF667AE99F8000004F81C
:10080000010B0099039220461AF046F8039A14440B
:100810000AF1010A09F10109C6E799F8002055F823
:1008200022300093029B45F822300098FFF794FC99
:10083000421CDCE76FF00D0048E600BF2DE9F04FE9
:1008400097B000AF90F802A0D7F880B03B62CBF32E
:10085000C0030446FA62BB61894641B94578007815
:100860000AEB800020444D4517D8A0EB0409E3783B
:10087000FB61BAF1000F02D01BF0010F16D1FB692A
:1008800053BBFB6A1BB13A6A4946204698474D461E
:1008900028465C37BD46BDE8F08F461C3046FFF762
:1008A0005BFC0130304409F10109DCE72378626820
:1008B0007A62FA6A9900796104EB8301002A40F0B8
:1008C00000814D460E4601EB0A094FF000084E45E7
:1008D0004CD101EB0A0610E01BF0020FD1D02378B7
:1008E0009A007A6162687A62FA6A04EB8301002AEC
:1008F00077D14D4601EB0A0690461BF0050F0CBF61
:1009000002230123FB62FB6906EB430A0BF002039F
:10091000BB625645BCD016F8021B16F8013C54F8D1
:100920002390AF4B994502D3AE4B994536D3BB6963
:10093000002B40D0786A11F078F900283BD0E946C6
:100940008AB06A46A84B53617B6AC2E906314FF40C
:1009500000731384A54B42F8103FA54800234FF4C1
:10096000125100F01DFD023DCD46D2E716F8013BC5
:10097000F96254F82300FFF7EFFBD7F88430F96AE7
:1009800001304BB1D7F8883098453EBFD7F8843056
:1009900023F8180008F10108054498E7BB6923B162
:1009A000786A11F042F90028C9D11BF0010F05D176
:1009B000FB6AED1AADE7BB6A002BAAD04846FFF7E9
:1009C000CBFBD7F8843053B1D7F8883098453FBF78
:1009D000D7F88420431C22F8183008F10108054498
:1009E00097E7BAF1000F72D01BF0040672D0D04620
:1009F000002607F1480052463B61B96219F04CFFEE
:100A0000B96A3B6901EB0A02BA62FA69F9695200F4
:100A1000FA60BA6A02EB41023A610BF00202BA6074
:100A20003A69B96A8A4257D162787A621BF0020F3A
:100A300032440CBF4FEA580100211BF0010FD2B223
:100A400040F09F801BF0040F14BF40460020BB61A4
:100A50006270A070E1703A6A7969FB6A2046984733
:100A6000051EFFF615AFBB6923707B6A6370FB69D7
:100A7000E37041463A6AFB6A84F802A007F1480035
:100A80009847B0F10008C0F2B5807B693A6AA9EBDB
:100A90000A01C91AFB68C91AD7E90A03984700284E
:100AA000C0F2AA80A84408EB00054FF0000B07F144
:100AB000380AB34567D300213A6AFB6A084698476B
:100AC000E6E656464FF0000807F1380093E7564631
:100AD000D04697E7B04695E7BA6A12F8021BBA62A9
:100AE00012F8015C3E4A54F82500904202D33D4A78
:100AF00090421ED3BA6932B1786A7B6011F095F8E2
:100B00007B6800288CD1BA6802BB08F1280207F183
:100B1000300C08F10100944407F1580252FA80F0B9
:100B200008F102080CF8101C5FFA88F800F8105C55
:100B300076E7BA693AB1786A7B6011F076F87B683B
:100B400000287FF46DAF1BF0010F09D006F12802D9
:100B500007F13000711C161806F8205CCEB25FE772
:100B60001BF0040F3FF45CAF08F1280207F13000DE
:100B700008F1010102EB000808F8105C5FFA81F847
:100B80004EE7002063E71BF80A3087F8373054F847
:100B90002390D7F88430FBB133F81B803A6AFB6AA4
:100BA000012107F137009847002825DB0544B8F1FB
:100BB000000F06D14846FFF7CFFA00F101081FFAEF
:100BC00088F83A6AFB6A414648469847002813DB92
:100BD00005440BF1010B6CE7D7F88480DEE700BF1A
:100BE000E4A90100E00D02009BB701000400000130
:100BF0006CAC010045464BE6054649E6014B1860E2
:100C0000704700BFC004002080B505460E46174659
:100C100098460FF01FFD034619F0DAFEDFF8189032
:100C2000044649F80030424630463946A84754F851
:100C3000090001F047FB00BF080000002DE9F04764
:100C4000058B04462807904611D4022905F00705B4
:100C500040F0CC80204611F07AFA78B10138218B2F
:100C6000042811D8DFE800F0C2106D859500012935
:100C70000CBF45F0100545F02005258388F3118849
:100C8000BFF36F8FBDE8F08701F0070AAA4500F0B7
:100C9000A5800027B9463E46A368002B00F0BC8023
:100CA00041F00801218388F31188BFF36F8FA16899
:100CB000002900F0BA800D68002900F0B680D1F854
:100CC0000480334652462046C047002D76D02B681C
:100CD00029461D46F0E701F007035A1F012A1BD8D9
:100CE000002221F00701062B276889B2C4E90022FF
:100CF00009D13B4603E0628B013262831B68002B03
:100D0000F9D141F002012183204611F020FA002898
:100D10007AD041F0200176E0042B0AD121F00701BE
:100D200089B22183204611F012FA10B141F020015E
:100D30002183218B01F0070AAA454FD00027B9462D
:100D4000AAE7236921F0070141F00601062DD3F837
:100D5000009021832DD1B9F1000F3FD041F008015F
:100D6000218388F31188BFF36F8F3A492046C84723
:100D700029E021F00701236941F0040189B2042D23
:100D8000D3F804902183E6D000273E464FF0040AB2
:100D900082E721F00701236941F0050189B2052DA1
:100DA000D3F808902183D6D000273E464FF0050A9D
:100DB00072E700273E464FF0060A6DE72B4687E7AD
:100DC000B9F1000FD1D1EFF31188202383F31288FA
:100DD000BFF36F8F238B23F008032383258BEA0651
:100DE0002ED525F01003238305F007056669218BB6
:100DF000002EBFF670AF00232768C4E9003321F04E
:100E0000070141F001012183218B01F0070AAA4566
:100E10004FF000097FF440AF002F9CD041F0080153
:100E2000218388F31188BFF36F8F002FC8D03D68EE
:100E3000394633465246204611F0B5F92F46F4E7BD
:100E4000AB067FF51BAF25F02003238305F00705D4
:100E500000E700BFD32101002DE9F047DFF85880FB
:100E6000044607464FF0010914B93846BDE8F0873B
:100E700094FAA4F5B5FA85F509FA05F32E0108EB05
:100E800005156FEA030A24EA03042B7B002BEBD041
:100E900058F806301B694BB946440422736828464B
:100EA000196807EA0A0700F067FADDE7284698475D
:100EB0000028D9D1F0E700BFD4AC010030B510490B
:100EC000104889B0002219F0B7FC0F4D0F490022DD
:100ED0000023CDE9062300240E23CDE90334CDE918
:100EE00001440B4B00944FF4407228460FF0E4F895
:100EF0000849284619F092FB204609B030BD00BFD2
:100F0000190F0000800B0020F8060020802300202D
:100F10001D1200004FB8010001480FF037B800BFA4
:100F2000E80600202DE9F04780461F480F4611F0E3
:100F3000FAF90646002830D000252846BDE8F0879B
:100F4000237B6BB12368DB680BB12046984723688D
:100F50001B69D3B9636804221968204600F00CFAB3
:100F6000013610344C45EBD3B8F1000FE5D0002D1D
:100F7000E2D02846FFF770FF0546002FF7D000218A
:100F80004FF4A4700FF048FBF1E720469847002883
:100F9000E0D00AFA06F31D43E2E7044CDFF81090B4
:100FA00005464FF0010ADDE788150020D4AC0100AA
:100FB000F4AC0100014B53F8200070473CAD010038
:100FC00008B5034608462BB1044A136000F07EFCC6
:100FD000002008BD6FF01500FBE700BFC40400202F
:100FE00010B5044C237813B903480EF0CFFF01234A
:100FF000237010BD52220020E806002010B50446E0
:101000000B4811F090F95CB1BFF35B8F094B53E8CB
:10101000001F013943E80012002AF8D1BFF35B8FAB
:10102000054819F015FC0548BDE810400EF0AEBFAC
:101030008015002084150020800B0020E806002089
:101040000020064BBFF35B8F014653E8000F43E8D7
:101050000012002AF9D1BFF35B8F70478015002082
:1010600070B5FFF7EDFF084C084E0546B44200D3BB
:1010700070BD63685B792BB123685B6813B1294647
:10108000204698471034F1E7D4AC0100F4AC0100DD
:1010900010B5044C0449204610F0F5FE034B1C60CB
:1010A00010BD00BF4806002028AD010078150020C3
:1010B000084A094808B500231370084A1360084A13
:1010C0004FF400411360FFF77BFFBDE80840FFF7D6
:1010D000DFBF00BF53220020232301008015002022
:1010E00084150020014600220148002310F0ECBEC8
:1010F00048060020014810F082BF00BF48060020CB
:10110000024B0146186810F0CEBF00BF78150020D2
:10111000014811F003B800BF4806002070B5284B05
:10112000187800284BD0FFF7E5FF054690B1BFF3D4
:101130005B8F244B53E8001F013943E80012002A5B
:10114000F8D1BFF35B8F204C204EB4422DD32846FC
:10115000FFF7D6FF1E4B1F4C1B68002B19DD19F043
:1011600069FB4FF47A72A0FB020302FB0131C30B4F
:10117000D4E9002043EA41439B1A4FEAD13140F2BF
:10118000E93261EB0001934271F1000101D3FFF7F5
:1011900067FFD4E9003213F57A7342F10002C4E923
:1011A0000032BDE87040FFF7B3BF63685B7923B1DD
:1011B000236829461B68204698471034C5E770BD50
:1011C0005222002084150020D4AC0100F4AC0100B0
:1011D00080150020780B002070B50D4D297861B97D
:1011E0000120FFF79FFE0B4C0B4EB44206D3FFF7D6
:1011F00095FF0028FBD101232B7070BD63685B79DC
:101200001BB1236820469B6898471034EDE700BF68
:1012100053220020D4AC0100F4AC010000212DE9E0
:10122000F0470846FFF77EFE044658B340F2676871
:101230004FF0000919F0CCFB1B4B1C4A1B581360E4
:1012400033B11B4B1B68092B02DD1A480EF09EFEC2
:10125000194FDFF860A0002544B12046FFF7FCFDE0
:10126000044618B94FF0FF384FF0FF39FFF756FF2B
:10127000064628B9B5B942464B4650460EF0AAFE7E
:101280003546E9E74FF0FF384FF0FF39D2E72B68DA
:101290009B691BB100221146284698471035BD4274
:1012A000F5D3E8E7054DFAE7080000007C150020BB
:1012B00084150020E8060020F4AC0100D4AC010045
:1012C00013B5184811F02FF8174B1B7873B1EFF3D3
:1012D0001184202383F31288BFF36F8FFFF71EFF63
:1012E00084F31188BFF36F8F02B010BD0F4B1B68E2
:1012F000002BF9D050B900220023CDE900230C487F
:101300004FF4004200230FF0FBFBEDE70928EBD17F
:10131000074819F09DFA074802B0BDE810400EF0EA
:1013200035BE00BF84150020532200207C1500200C
:10133000800B0020E806002010B5064B1B68044611
:1013400098472146A060044810F03AFEBDE81040DE
:10135000FFF7B6BFC404002048060020044A054B2E
:101360009B1AB1EBD30F34BF52F831000020704705
:1013700064AC0100D4AC0100084BC31A10B41B11BB
:1013800044680133237143689A7143681960436864
:1013900001225A7110BCFFF723BE00BFD4AC01007C
:1013A0002DE9F04F8FB004AFC1F34A28B8600D4665
:1013B00091467B600C0DB8F1000F63D0002607F159
:1013C00014034FF0040B4FF00A0AC7F80C80C7E96A
:1013D00007667E620193CDF808B0CDF800A007F152
:1013E0001C03F96832464846FFF728FAB0F5006F4B
:1013F00003461CD36C468AB0D9F8041004AB2648C7
:10140000C3E9050140F2FF71D9611A464FF400713A
:101410001984224B42F8103F214833464FF41251B1
:10142000FFF7BEFFA5462C37BD46BDE8F08FC0F3E1
:101430000A0804F11700184420F0070080083B60F8
:10144000FFF750FE68F35325044690B13B68154AF8
:10145000C7E9083600F1100107F11403F961CDE97D
:1014600000A3CDF808B0F96807F11C034846FFF760
:10147000E5F968F353257B68B9682A46204610F0E1
:1014800088FFD0E704F1170020F007008008FFF77D
:1014900029FE0446EDE700BF64B801000400000126
:1014A0008CAC0100672301002DE9F04F87B0DDE926
:1014B0001279DDE9105A0446039193469846BFB16C
:1014C000CDF800903B46524610210020CDF81490F4
:1014D000FEF7E2FFB0F5006F06460AD3184A194836
:1014E00040F2FF73022107B0BDE8F04F10F0AABF31
:1014F0003E4605F11700304420F0070004F00704D1
:101500008008FFF7EFFD0BF0070BE40044EA8B14B3
:1015100044EA462444EA0554054640B13FB1CDF8BB
:1015200000903B46524631461030FEF7B5FF039916
:1015300043462246284607B0BDE8F04F10F029BFC9
:10154000A3B801008CAC0100406820B1034BC01A65
:1015500040F3CF0070474FF0FF30704764AC01009C
:101560000EB403B503AB014653F8042B04480193B2
:1015700001F074F902B05DF804EB03B0704700BFEE
:101580008F240100CA0605D48B064CBF02490349CB
:10159000FFF7E6BF704700BFDCB80100DBB8010011
:1015A0002DE9F04F89B09B46149B06939DF84CA003
:1015B000159B0593169B179E049304460D46904673
:1015C000BAF1000F00F09D8006F48073079310F0CD
:1015D000C8FE06F00209024600283ED09149204686
:1015E000FFF7BEFF0746B9F1000F08D016F0440F11
:1015F00035D18D492A462046FFF7B2FF074406F051
:10160000010353B1894B8A4953F82A20894B20465C
:10161000002A08BF1A46FFF7A3FF06F48073002BC9
:1016200049D006F00803002B63D1B8F1000F66D053
:10163000814942462046FFF793FF0546069B3D44FD
:10164000002B6DD1049B002B73D1F30700F1E480D4
:1016500031462046FFF796FFD8E00746C3E7774BB1
:1016600018680028CAD0764B4FF47A791B68B5FB0E
:10167000F3F54FF46161B5FBF0F300FB135509FB83
:1016800005F54FF03C0CB3FBF1F201FB1231B5FB59
:10169000F0FEB1FBFCF300FB1E550CFB131109FB24
:1016A00005F50091B5FBF0F56649CDE901E5204669
:1016B000FFF756FFA2E706F00803EBB1624B634960
:1016C00053F82A202046FFF74BFF0546B8F1000FDC
:1016D00005D0594942462046FFF742FF0544BBF179
:1016E000000FABD05A495A462046FFF739FF054450
:1016F000A4E74FF0000BE1E706F00805E6E74546F2
:101700009CE7BBF1010F069B06D1002B64D1049B23
:10171000002B7BD000250CE0002BF8D04D485CE07E
:101720004D48069B4D49224610F04EFA049B002B73
:1017300068D0DFF82C81DFF82C91049F3146102F00
:10174000204628BF1027FFF71DFF4FF0000B5D4517
:1017500045DC059B49461A782046FFF701FF4FF00C
:10176000010B1BF0070F03D141462046FFF7F8FE9F
:101770005F453BD9059B494613F80B202046FFF7F0
:10178000EFFE0BF1010BBBF1100FEAD136492046F9
:101790004FF0000BFFF7E4FE5A46059B9A5CA2F15E
:1017A00020015F2928BF2E2230492046FFF7D8FEAE
:1017B0000BF1010BBBF1100F1DD01BF0070F03D174
:1017C00041462046FFF7CCFE5F455A46E5D84146E4
:1017D0002046FFF7C5FEEBE71F485546A1E7414607
:1017E0002046FFF7BDFE0BF1010BB0E72049204674
:1017F000FFF7B6FEC5E7059B3B440593049BDB1B47
:1018000004939AD1BAF1000F7FF41FAF204609B0BC
:10181000BDE8F04F10F02EBE064A05492046FFF7FE
:101820009FFE15E7E3B80100E7B801004CAD0100E9
:10183000FCBF0100DEB801000CB9010090150020CA
:101840008C150020F0B8010060AD010010B9010056
:1018500016B90100C52401008F2401005D28000095
:1018600023B901001BB9010025B9010027B9010006
:1018700021B9010073B542F20F738B4228BF0B46AA
:1018800005680F4A0446052168460FF075FB63683A
:101890000C495B6806460B22284610F0DDFD6368A4
:1018A0003246694628465B6810F0D6FD63680649F3
:1018B0005B681B22284610F0CFFD02B070BD00BF50
:1018C0002405020046B901002AB90100074A002197
:1018D0000123904206D8064A01B901231360054B43
:1018E0001860704740085B000121F2E740420F009A
:1018F0008C15002090150020014B01221A707047B2
:1019000054220020014B002019607047A8150020C8
:101910000148FFF7AFBF00BF90AD010010B5064B07
:1019200018680C46FFF746FB21460346BDE8104009
:1019300002480F22184700BFA815002090AD0100F3
:10194000F8B5094D094B0A4ED5E9004701221A7036
:101950000CB92C60F8BD214630463A4600F01EF81E
:10196000241A0644F4E700BF9C15002055220020ED
:101970005622002010B9074B18707047064B1B7891
:101980001BB141F2883018F09BBDA42000210EF05D
:1019900043BE00BF54220020552200202DE9F84309
:1019A000DFF874901D4F80460E46042499F80050CD
:1019B00095B90EF037F82846324641460DF0E4FF5F
:1019C00005460EF039F8E5B101233B7099F8003077
:1019D00073B93046BDE8F8833246414600200DF029
:1019E000D3FF0546EFE72046FFF7C4FF651E2C46F0
:1019F00000200EF00DF80028EBD03B78002BF2D140
:101A0000E7E73B78002BE4D0013C2046FFF7B2FF2C
:101A10003B78002BCAD1DCE755220020542200205D
:101A2000F8B5074F0D4604464618B44201D1284682
:101A3000F8BD14F8011BBB6801485B689847F4E7E0
:101A4000A8AA0100014B036000207047D4AD01003B
:101A500008B5044810F010F9BDE80840024810F03D
:101A60000BB900BF9CB90100D1B9010001480FF0CA
:101A7000DBB800BFD4AD010038B5044618B90F4B30
:101A80000F485B6898476168B1F5683F10D0B1F5C1
:101A9000680F0DD00B4DA9420AD011F4686120687F
:101AA00007D00146084818F068FD002323606560F0
:101AB00038BD142218F018FFF9E700BFD805002040
:101AC000FFB901002C5F5CA9D01A002008B520B333
:101AD0004368B3F5683F10D101220368BFF35B8F01
:101AE00053E8001F002903D143E800200028F7D164
:101AF000BFF35B8F0DD1002008BD094A93420AD085
:101B000000684FF0FF324FF0FF330EF08BF90028E2
:101B1000F1D00448F0E70448EEE76FF4E040EBE76B
:101B20002C5F5CA9E98FFFFFEA8FFFFF08B5D8B1F2
:101B30004368B3F5683F10D100220368BFF35B8FA1
:101B400053E8001F012903D143E800200028F7D102
:101B5000BFF35B8F0BD1002008BD074A934208D02A
:101B600000680EF0D7F9F6E76FF4E040F4E70348B9
:101B7000F2E70348F0E700BF2C5F5CA9E98FFFFFA5
:101B8000EA8FFFFF10B5044618B91D4B1D485B686E
:101B900098476368B3F5683F2FD0B3F5680F2CD032
:101BA000194A934219D1236803BB18484FF0FF32FA
:101BB0004FF0FF3321460EF007F908B923681BB92F
:101BC0000F4B13485B68984720681422002118F0D7
:101BD0008BFE4FF46863636008E0B3F5683F0DD88F
:101BE0003A2B03D040F6BA629342DED1206818F057
:101BF000FCFC636843F03A03636010BD054AF3E7F9
:101C0000D8050020FFB901002C5F5CA9D01A002084
:101C100025BA01003A00003A08B5064906484023B3
:101C2000142218F09CFCBDE80840044904480FF059
:101C30006DB800BFD0150020D01A0020DCAD010027
:101C4000F0AD01002DE9F047064600AF0C46002933
:101C500036D0E9468AB0D1E90012A3686D46214822
:101C6000A8464FF0050AC5E90501C5E9072348F86C
:101C700010AF1D48424600234FF42151FFF790FB5F
:101C8000CD46D4E903126369AD461848C5F810A0E3
:101C9000C5E90501C5E907231348002342464FF46F
:101CA0002151FFF77DFBCD46E369114A0E48012122
:101CB00010F0C8FBA3690F4A0B48012110F0C2FBCA
:101CC000012E07D1EFF305830B4A0748103B31463D
:101CD00010F0B8FB214630460DF0C4FEBD46BDE80D
:101CE000F08700BF52BA0100B4AC010081BA010014
:101CF000B0BA0100BFBA0100EDBA010030BFFFF772
:101D0000FDBF00BF2DE9F0410B4EDFF8308006EB40
:101D10000807CC1B054632460949204618F0BCFD91
:101D2000A01942460021083C18F0DEFD2C6707F19F
:101D30000800BDE8F08100BF0000000004000000C2
:101D4000F4AC0100074A936893F90E10002907DBF1
:101D5000526993421FBF044A536843F08053536053
:101D6000704700BF2820002000ED00E070B5294C2E
:101D700006460D462848294910F02CFCA36AD904D0
:101D80003CD52548264910F025FC1720A36A1A05E2
:101D900004D52148234910F01DFC18201D4CA36ACE
:101DA0009B0512D51C48204910F014FCA36BA26AB5
:101DB000100409D51D4A1848012110F043FB1EB13B
:101DC000A36A23F40043A3621920124CA36A5905A5
:101DD00004D51148164910F0FDFB1A20A36ADA0554
:101DE0000ED50D48134910F0F5FB1B20094A936AE4
:101DF00043F47F43936200232B7070BD1620C5E728
:101E0000A36A9B04F2D504480B4910F0E3FB1C20A5
:101E1000ECE700BF00ED00E0B4AC010000BB010046
:101E200016BB010027BB01003ABB010053BB0100F8
:101E300068BB010083BB01009BBB010010B5204CB7
:101E40002049214810F0C6FBA36A990136D51E48E7
:101E50001E4910F0BFFB1E20A36ADA0104D51A4800
:101E60001B4910F0B7FB1F20154CA36A1B0304D5B8
:101E70001548184910F0AEFB2120A36A590304D578
:101E80001148154910F0A6FB22200D4CA36A9A03B5
:101E900004D50D48114910F09DFB2320A36ADB03F4
:101EA00004D509480E4910F095FB2420044A936A92
:101EB0006FEA03436FEA1343936210BD1D20CBE723
:101EC00000ED00E0CABB0100B4AC0100E2BB0100C0
:101ED000F5BB01000FBC01002DBC010052BC01008C
:101EE0006CBC01002DE9F843364D804689463648E2
:101EF0003649174610F06EFBAB6ADE0627D534492B
:101F0000314810F067FB1124AB6A1D0704D5314935
:101F10002D4810F05FFB12242A4DAB6A980718D5A4
:101F20002D49294810F056FB6E6BAB6A190646D551
:101F30002A4A25483346012110F084FAB9F1000FEE
:101F400003D0AB6A23F08003AB62132403E01024B8
:101F5000DAE76FF015061B4DAB6ADA0704D52049A6
:101F6000194810F037FB1424AB6A9B0604D51D49B1
:101F7000154810F02FFB1524124B9A6AD50602D48F
:101F80009A6A90070AD55B68190507D5414630461D
:101F900000F080FA10B180F309880224094B9A6A94
:101FA000920642BF5A6A22F400525A629A6A42F07A
:101FB000FF029A6200233B702046BDE8F8836FF071
:101FC0001506C2E700ED00E0B4AC010097BC0100CB
:101FD000ADBC010027BB0100E0BC0100F8BC010062
:101FE0000EBD01009BBB01002DE9F041664B8AB09C
:101FF000D3F8048000AF0446C8F30805002686F332
:102000001188BFF36F8F02F07F43B3F17F4F07D189
:1020100002F00C03082B12D15C495D4810F0DAFA8B
:10202000002634460023FB71EB1E092B00F28A8048
:10203000DFE803F00A80837D888888888886100717
:102040004CBF0C460126EDE7524951484E4D10F069
:10205000C1FA0023FB71EB6A9A0705D54E494C483B
:1020600010F0B8FA002333E0EB6A002B01DA4B4999
:10207000F5E7EB6A5B00F5D54949454810F0AAFA47
:102080006B69A26943F480736B61BFF34F8FBFF339
:102090006F8F6B6932F8022C23F480736B61BFF38E
:1020A0004F8FBFF36F8F4DF602739A4209D0AB6A20
:1020B000DBB27BB3FA1D01212046FFF713FF034675
:1020C00006E02368374A3248012110F0BBF9236843
:1020D000FA79DAB907F1080504F1200C2068616883
:1020E0002A4603C2083464451546F7D17A6A002EA1
:1020F00044D0C2F3080121B96FEA52226FEA4222AA
:102100007A6207F108011846FFF79CFD2837BD46A3
:10211000BDE8F081AB6A13F47F4F04D0F91D0120B4
:10212000FFF724FECBE7AB6AB3F5803F9AD3FFF706
:1021300085FEC4E7FA1D0021BEE7F91D0020EFE788
:1021400019498CE7194A1A4B18F4F87FE8468AB007
:1021500018BF13466A461749C2E905134FF40073C6
:102160001384103D144BD56142F8103F08480023FA
:102170004FF41151FFF714F9C54673E722F4FF72CB
:1021800022F00102BCE700BF00ED00E05BBD0100F2
:10219000B4AC010086BD01009DBD0100BEBD0100C3
:1021A000CCBD0100EBBD010007BE010042BD010036
:1021B0002DBD01002BBE010004000001044B5A6933
:1021C00042F010025A615A6922F008025A617047BF
:1021D00000ED00E0EFF30880EFF3098101B57246EE
:1021E000FFF702FF01BD00BF002080F31488BFF39A
:1021F0006F8F01F0B9FD00200D490860BFF34F8FCC
:102200000C4880F3088800F02BF8202080F3118818
:1022100009484FF40461401880F30988EFF31480F3
:102220000221084380F31488BFF36F8F00F0FAF89F
:1022300094ED00E080380020C02600200749D1F846
:1022400090200023C2F307221846934200DB704718
:10225000C1F89830C1F8A0000133F6E700ED00E0C6
:1022600008B572B6002383F31388FFF7E7FF144B1A
:102270004FF0FF32C3F88020C3F88420C3F88820D1
:10228000C3F88C20C3F89020C3F89420C3F898209A
:10229000C3F89C20C3F88021C3F88421C3F88821A7
:1022A000C3F88C21C3F89021C3F89421C3F8982176
:1022B000C3F89C2162B6BFF34F8FBFF36F8F08BD89
:1022C00000E100E0084B9B6883420BD1EFF30583EC
:1022D00043B1064B5A6842F080525A605A6A22F45F
:1022E00000425A6218F06BBA2820002000ED00E08E
:1022F000094A93686FF00A019967084958674B6863
:1023000043F080534B60002383F31188BFF36F8F3A
:102310009368986F704700BF2820002000ED00E010
:1023200010B50446EFF31183202383F31288BFF323
:102330006F8F0A4B58699860094B4FF000625A60E2
:10234000084B026F1A600022436F426783F31188C3
:10235000BFF36F8F00F006F9204610BD2820002043
:1023600000ED00E0EC1A00200B498A684FF03000C5
:102370001044EFF3098C80E8F01F74467046FFF7B5
:10238000CFFFA64604498A6802F1300090E8F01FAA
:102390008CF3098870470000282000201EF0040FED
:1023A0000CBFEFF30880EFF30980816911F8021C7C
:1023B0000229FFD001B510F002F901BD40B200289A
:1023C00007DB044A4109012300F01F00834042F863
:1023D0002130704700E100E0054B420900F01F008A
:1023E00053F82220012303FA00F01040704700BF89
:1023F00000E100E040B20028A8BF00F1604001F118
:102400000101B8BF064B4FEA4111ACBF00F5614076
:1024100000F00F00C9B2B4BF195480F80013704720
:1024200014ED00E00B4A08B50B4B22F07F029A60D6
:10243000BFF34F8FBFF36F8FD3F8882022F4700261
:10244000C3F888200DF0FAFB0EF090F900F060F868
:102450000DF038FC0000000000ED00E042F8203CE8
:10246000009B42F81C3C0A49019B42F8183C029B25
:1024700042F8143C21F001014FF0807342F8043C13
:1024800042F8081C0023203A02654367704700BFEA
:10249000090C0000094A0346906870B113F1160F49
:1024A000006E05D0A0F140029A4205D8834203D2C3
:1024B000814228BF0020704700207047282000205C
:1024C00008B515460B4A0C4B9060026F1A600E4619
:1024D00000F048F82C4686F309884FF00000074BBF
:1024E000984720464FF000014FF000024FF00003E4
:1024F000034C204728200020EC1A0020E52501008D
:10250000090C0000014B10221A61704700ED00E039
:10251000044800232021C2180133302B82F8001315
:10252000F9D1704700E100E008B5EFF30583064AF2
:10253000103B02EBC30152F8330049688847BDE8FD
:102540000840FFF7FFBB00BFE4AA0100024B034AAB
:102550000348012100F08AB8000004200000002098
:1025600000AE0100026E054B403A1A60044A402159
:10257000C3E901121846012100F082B8F01A0020C8
:1025800000000B1508B503461048D0F89020C2F3A0
:102590000722013A934207D90D480E4A01210FF054
:1025A00051FF6FF0150008BDC0F898300A6822F09E
:1025B0001F021A4342F01002C0F89C208A6842F0C1
:1025C0000102C0F8A0201846EDE700BF00ED00E0D2
:1025D000ACAC010042BE0100F0B50E4685B01F460E
:1025E00004460025B5420DDA606810B397B1431E6A
:1025F00018420AD0104A11482B4601210FF022FF41
:102600006FF01502104605B0F0BD1F28F2D9216801
:102610000B42EFD12368019310F007F8A36801A9DA
:102620000343D0B20393FFF7ADFF10F1160FE7D0CD
:10263000421C01350C34D5E768BE0100ACAC01008A
:10264000044B0522C3F89420BFF34F8FBFF36F8F65
:10265000704700BF00ED00E0BFF35F8F024B002228
:10266000C3F89420704700BF00ED00E010B5034CA4
:1026700001232278FFF7B0FF207010BD67220020F1
:1026800008B50B4A00231278FFF7A6FF10F1160FCA
:1026900007D0084A0021D2F89030C3F307239842AC
:1026A00000DB08BDC2F89800C2F8A0100130F2E7C4
:1026B0006722002000ED00E02DE9F043574858491B
:1026C000D0F890300D68C3F307239D4285B000F227
:1026D000A180FFF7C1FF49680022954201F10C017A
:1026E0001AD1504C504F25706846FFF7ABF9DFF810
:1026F0003C81DFF83C9106460025AE421FD123788D
:1027000046490020D1F89020C2F3072293427BDB98
:10271000FFF796FF00204CE0C0F8982051F80C3CE1
:1027200023F01F03134343F01003C0F89C3051F80B
:10273000043C43F00103C0F8A0300132CDE700981B
:1027400000EB05114FEA051CCB683B40B3F5000FC9
:1027500044D00AD8B3F5001F2ED0B3F5800F34D083
:10276000B3F5801F10D00135C7E7B3F1807F3ED0AD
:10277000B3F1007FF7D150F80C3088684A680FF049
:1027800054FF40F4802009E050F80C3088684A6813
:102790000FF04BFF40F0885040F43020039001A927
:1027A0002078CDE90123FFF7EDFE002828DA6FF04D
:1027B000150005B0BDE8F08350F80C3088684A6811
:1027C0000FF033FF40EA0800E8E750F80C30886863
:1027D0004A680FF02AFF40EA0900DFE750F80C30A2
:1027E00088684A680FF021FF40F08270D6E750F801
:1027F0000C3088684A680FF018FF40F08870CDE709
:10280000237801332370AEE7C1F89830C1F8A000F7
:10281000013377E74FF0FF30CBE700BF00ED00E07A
:102820000CAE0100672200200000F0FF000008113C
:102830000000020708B5024B1B689847002008BD3E
:10284000FC1A0020034B044A1860937843F00203FB
:1028500093707047FC1A0020F0040020F0B587B098
:1028600007460E4614460021102268461D4618F001
:102870003BF802238DF802302A46054B019321468E
:102880006846CDE904760EF0CBFB07B0F0BD00BF83
:102890004B26010008B50649064821F00701C1F1A1
:1028A000005202F580220FF037F9002008BD00BF6A
:1028B000C7380020001B00200E4A0123C2F8403513
:1028C0004FF080424FF08051C2F87835D1F8300196
:1028D000082808D1D1F83411052904D80648415CEC
:1028E00009B1C2F838364FF080430122C3F8802581
:1028F0000020704700E001409ABE010020B1034B68
:10290000800143F001031847704700BF20AD01006C
:10291000084B70B5C31A0D4607499B10044659432E
:10292000064840220FF0A5FE2B4601462046BDE892
:1029300070401847201B0020B76DDBB66CAA010061
:1029400073B50C4C0C4A4023041B00930D460B46F8
:102950000A49A4106143064609480FF0B5FE011E5E
:1029600005DA30462B4602B0BDE87040184702B089
:1029700070BD00BF201B002031270100B76DDBB602
:102980006CAA010010B5EFF31184202383F31288A1
:10299000BFF36F8F074A136823F00201DB07116052
:1029A00002D4012010F06AF884F31188BFF36F8F0E
:1029B00010BD00BF701B0020002270B5012104462D
:1029C0001046FFF717FD0F4801F058FB0E4B9842D9
:1029D00015D101F063FB26690C4930460FF006FC67
:1029E00000280BDB012535642469084904F11C002B
:1029F0000FF0FCFB002801DBE564002070BD6FF0E8
:102A00000400FBE7092B00000000AD0B2CAE010019
:102A10001FB500220123CDE90223094ACDF800D0D9
:102A20006B46CDF804D00FF07CFE002805DB4FF498
:102A30008042002368460DF0CDFA05B05DF804FB36
:102A40004F27010030B4104B0C2202FB003301462B
:102A50000020D3E90E529863EFF31180202484F311
:102A60001288BFF36F8F1C6C04F0C00444F00204A2
:102A70001C6480F31188BFF36F8F1DB12B46034890
:102A800030BC184730BC7047201B00206CAA0100E6
:102A900010B4EFF31182202383F31288BFF36F8FFA
:102AA0001748016841F002040460C80707D482F3A4
:102AB0001188BFF36F8F012010BC01F001BB4FF0F4
:102AC0008041D1F80C04D1F80C14C907EFD5EFF30D
:102AD000118083F31288BFF36F8F0A490B6C03F0E8
:102AE000C00343F002030B6480F31188BFF36F8FC0
:102AF00082F31188BFF36F8F002010BCFFF7A2BFD5
:102B0000701B0020201B002010B1012804D070474A
:102B1000034B1B6C5B0701D1FFF794BF704700BFED
:102B2000201B00202DE9F0413849BFF35B8F074699
:102B3000012251E8003F41E800200028F9D1BFF30D
:102B40005B8F33B9324933484B60CB608A600FF0FA
:102B500060FB7B1E012B2BD8012F07D14FF0804348
:102B6000D3F81C3403F00303012B21D017F050FDE0
:102B70000546F8B9284B1B78E3B14FF08043022299
:102B8000C3F808230646DFF894804FF08044D4F859
:102B90001824D4F81834D20315D503F00303012BFD
:102BA00001D0012F0FD155B386F31188BFF36F8F7A
:102BB000BDE8F081EFF31186202383F31288BFF381
:102BC0006F8F0125DFE7ADB130460FF01FFDD4F860
:102BD0001835002BDBD1D4F80421002AD7D0C4F853
:102BE0000431D4F804310123C4F81835C8F8803111
:102BF000A360CCE7002121200DF00EFDE7E74FF0A8
:102C000080430222C3F80423D2E700BF1C1B00202C
:102C10000C1B00203C1B00207623002000E100E07C
:102C200008B5074817F051FC38B10648FFF70AFE0F
:102C30000448FDF7E3FF002008BD6FF01200FBE73A
:102C4000A8AA0100492C00000A2838B5074D0446FF
:102C500004D1AB680D215B6828469847AB680348F0
:102C60005B68E1B29847204638BD00BFA8AA0100C2
:102C7000F0B585B045686B6C04464FF4004240F2F5
:102C8000E7300021C3FB020151EAC33300AF2FD06C
:102C900000234FF47A72FDF733FA6FF00103181A2C
:102CA0004FF0FF3363EB01010DF0B6FC6368204683
:102CB0009B6A9847064600BB2B6B204698476C469C
:102CC00088B06A46784BC2E905304FF400739383AD
:102CD000764B42F8103F764833464FF4E251FEF708
:102CE0005FFB6FF01505A54628461437BD46F0BDBD
:102CF0006FF001004FF0FF31D6E7286AE0B9656850
:102D00002369A4223A7195F84020002A0BBFA6211E
:102D1000A7210222042279711A702B6A5BBB20461C
:102D20000FF02EFD002838D0624A614801210FF0D3
:102D300080FB6FF00405D7E795F82410EB8CD0F8F2
:102D400010C0D0F808E0DCF80050DA0754BF43F4B4
:102D5000B01383F4D013012623F480128E40DB07D6
:102D60004CBF3543B543CCF80050DEF800309847EF
:102D7000051EC4DAB8E70021203521200DF04CFCF7
:102D8000012128460FF069FD002121200DF044FCAF
:102D9000002128460FF061FDC1E748F2D5023A81D3
:102DA0006368D922BA7293F83C30FB7242F2DB03BB
:102DB000BB810622012307F1080120460FF0CEFC5B
:102DC0000028B1D163684DF240323A8193F83A203D
:102DD000BA72DA22FA7293F83F20002A0CBF12224C
:102DE00002223A73A8227A7393F83B30BB7307220E
:102DF000012307F1080120460FF0B0FC002893D111
:102E0000626892F83D30603B3B7292F83E30002B96
:102E10000CBFC023C8237B720222012307F10801E3
:102E200020460FF09BFC00287FF47EAF636893F888
:102E30004130002B15BF8B231423AD228D227B72D2
:102E400033233A72BB720322012307F108012046A3
:102E50000FF084FC00287FF467AF636843F2AD0293
:102E60003A8193F848304BB10123022207F108015F
:102E700020460FF073FC00287FF456AF0123022296
:102E8000391D20460FF06AFC00287FF44DAF8021E9
:102E900020460FF081FC054600287FF445AF204610
:102EA0000FF062FC20E700BFCDBE0100030000016F
:102EB000C4AC0100E6BE01002DE9F74F1F89B3F84D
:102EC00004C0DDF83080D0F804A0674506461C46F3
:102ED00009D2424A424801210FF0ABFA4FF0FF30CD
:102EE00003B0BDE8F08FB3F806E01B680EFB0CF5ED
:102EF000ED109D4228BF1D46B8F1000F00D00DB95E
:102F0000384AE7E7674501D9374AE3E712F0070790
:102F100001D0364ADEE79AF838B09AF841A0CBB231
:102F20005BFA81F1C9B2C2F3C709BAF1000F2FD021
:102F300001F00F03090941F010018DF800308DF800
:102F40000110C246E288FBB2B3EBD20F01D30020DE
:102F5000C6E74B4463F04F038DF802300322012390
:102F6000694630460FF0FAFB03460028B6D1A28826
:102F7000514630460FF0F2FB0028AFD1A3889A44A7
:102F800008EB05039A4507F10107DBD9184AA1E7C9
:102F90007244013B6344D21020249B44013A222313
:102FA000ADF800408DF803108DF805308DF807203E
:102FB00001232124082269468DF802408DF804B0CF
:102FC0008DF806900FF0CAFB034608B1094A81E765
:102FD0002A46414630460FF0C1FB81E703BF01009E
:102FE000C4AC01001FBF01003FBF010050BF010082
:102FF00063BF01007ABF0100F0B54068057B01F0B6
:103000001F0444EA4514056987B0002D64D0B2F569
:10301000001F00F1100506D1214628460FF0AEFD35
:10302000002007B0F0BD01AE0027B2F5800F019778
:10303000776039D1B3F1007F14BF052304238DF8E5
:1030400004300023CDE904630393836823FA01F17C
:1030500011F001011AD1B2F1A07F17D104F01F03C2
:10306000620903F5E0732AD0012A3BD11F4A52F8C6
:103070002330DB070AD40DF10306324621462846E9
:1030800001F0FCFA1A4B98421CD0029603AA214682
:10309000284601F0B5F9174B984220D1012221466C
:1030A000284601F04FFBBBE7B3F1C06F05D0B3F189
:1030B000007F14BF01230223C1E70323BFE74FF0C2
:1030C000A042D4E73146284601F036FB094B98422E
:1030D000DBD06FF00B00A4E76FF08500A1E76FF085
:1030E00015009EE751F82330FFDE00BF00030050BB
:1030F0000400AD0B0000AD0B38B545682B69B3B1CA
:103100001035284601F008FB044680B901462846E0
:1031100001F0CEFA084B98420BD1084922462846C6
:1031200001F0A6FA224605210620FFF763F90020E8
:1031300038BD6FF00400FBE70000AD0B413100002B
:10314000420970B5034602D0012A17D070BD0D4E5A
:10315000326951680029F9D003F01F0301250C687A
:103160009D400029F2D08A682A4002D04B68304640
:1031700098472CB1236821461C46F2E7024EE7E748
:103180002346F8E794AA010080AA01002DE9F04344
:10319000466840F20635D006337B87B002EA050563
:1031A00054BFC2F34010032001F01F07B5F5837F21
:1031B000144647EA43178DF8030045D00FD8062D73
:1031C00018D007D8B5B1022D40D06FF0150007B068
:1031D000BDE8F083B5F5807FF7D101250AE040F224
:1031E0000222954234D0B5F5407F33D0B5F5007F4B
:1031F000EBD102250123220303FA01F12CD57368D8
:10320000C3F80815326982BB07F01F037F0929D074
:10321000012F77D13E4A02EB830284F48033D2F847
:103220000017C3F30043C4F3404444EA430421F4C9
:10323000E16144EA800421F0070144EA05230B43DD
:10324000C2F800370020C2E70725D3E70425D1E7FD
:103250000525CFE70325CDE7630344BF7368C3F8B3
:103260000C15CFE74FF0A042D5E710360DF1020262
:103270003946304601F002FA14F4403F80460CD142
:10328000394630460FF078FC224B9845DAD19DF84C
:103290000210304601F04AFAD4E701AB4FF00009C2
:1032A00003AA39463046CDE90439CDE90199CDF874
:1032B0000C9001F0A5F8174B984286D114F4003316
:1032C00015D09DF803308DF80E3084F48034C4F3AB
:1032D00000444B4603AA394630468DF80C508DF811
:1032E0000D4001F047F90B4B9842CDD06DE7CDE989
:1032F000043303AA0DF1030339463046039301F06A
:103300007FF8F0E703F5E07352F82330FFDE00BFEB
:10331000000300500000AD0B02780B69012A08D0B1
:10332000022A08D04AB9064A5A6203F114000CF086
:103330002DBE044AF8E7044AF6E7044AF4E700BF62
:103340000000AD0B0100AE0B0200AE0B0100AD0B97
:103350002DE9F04FD0F81090D0F8048085B00546E4
:103360000C461746029309F1040A4FF0FF324FF062
:10337000FF3350460CF02EFE09F1140B00230022FF
:1033800058460CF027FE404601F092FC7B1E0026BA
:103390000393B74201D8002322E0039B217AB34272
:1033A00083BF237D83F00403C3F3800300230193D1
:1033B000029B0093D4E90023284600F08FF80346CF
:1033C00070B94FF48042002358460CF003FE98B1C8
:1033D000404601F07DFC284600F06EF86FF00403D3
:1033E0004046029301F074FC50460CF0CFFD029B66
:1033F000184605B0BDE8F08FD9F82430034A93424F
:1034000004F10C04EAD10136C3E700BF0000AD0BA4
:1034100098B5044640682346826900AF00F1080170
:1034200001F002FC0E4B984217D023686C4688B01E
:103430006A460C49C2E905134FF4007393830A4BA3
:1034400042F8103F094800234FF4E251FDF7A8FF6E
:103450006FF00F00A546BD4698BD0020FBE700BFFA
:103460000000AD0BDFBF01000300000184AC0100D0
:1034700008B5CA07436800690AD4C1F34202012AA9
:1034800009D0022A0FD00A4A0A4801210EF0D1FFC2
:103490006FF0150006E01B684FF0CC72C3F82425CE
:1034A0000160002008BD1B684FF0CD62F6E700BF49
:1034B000FFBF010084AC010008B543681B68D3F866
:1034C0000805D3F80C1501F009FD034B984214BF11
:1034D0006FF00F00002008BD0000AD0B2DE9F0419A
:1034E00086B00C4647689DF83480154600211222AC
:1034F0000DF106001E4617F0F7F9BDF830208DF8E3
:10350000052004F0010314F008028DF8043002963F
:10351000049509D0124A134801210EF08AFF6FF07A
:10352000850006B0BDE8F081A10705D4B8F1000F11
:1035300011D1002BF3D1202201A9384601F0E4FB80
:10354000094B984209D00B3398420CBF6FF00F0023
:103550006FF00400E5E74022EEE70020E1E700BF5E
:1035600011C0010084AC01000000AD0B036803F042
:103570001F025B09026004D0012B034818BF002022
:1035800070474FF0A0407047000300502DE9F04F06
:10359000DFF89491DFF894A185B01546834600EBDF
:1035A000810140F2FF18594503D1002005B0BDE864
:1035B000F08FDBF800305E04C3F3C322C3F30804CA
:1035C00000F1AC801B0E19F80270444508BF4FF0A3
:1035D000FF34222B00F2A580DFE803F012191F222E
:1035E000252B22A3A3A3A33B68A3A3A3A3A3A3A3C5
:1035F000A3A36B818487A3A3A38A9194979A9D0028
:10360000C5F80C45601C5ED10BF1040BCBE7C5F887
:103610001445621CF8D000265FE0C5F80845F1E7C4
:10362000C5F81045F5E7631CC5F80845ECD0002641
:1036300004E0661CC5F80C45E6D0012603A80394F7
:10364000FFF794FF039B012202FA03F3C0F80C3545
:1036500008E0C5F80845002FDBD1631CD4D0002654
:1036600032460627DBF80030019303F400400028BF
:1036700018BF002203A8009218BF01260394FFF789
:1036800075FF039C019B009A00EB8400C3F3412C5F
:10369000D0F800473B0243EA8C03134304EA0A04D0
:1036A000234343EA4603C0F80037ADE7C5F80C45AD
:1036B000D1E7C5F86045601CDBF80030A4D0C3F347
:1036C0000043002BB9D003A80394FFF74FFF039BDF
:1036D000012606FA03F3C0F808353246C2E7C5F8FA
:1036E0006445E8E7C5F86845E5E7C5F86C45E2E7F5
:1036F000C5F82445621C87D000220126B2E7C5F830
:1037000028457FE7C5F83045F4E7C5F83445F1E7CB
:10371000C5F83845EEE7C5F83C4573E76FF015008E
:1037200044E76FF0850041E737C00100F0F8FCFF87
:103730002DE9F041044647680D4616F069FF4FF049
:10374000200888B9264B1B7873B1642660680FF097
:103750003AF9F0B901200FF083F9013EF6D10021CA
:1037600021200CF059FFF0E7EFF31186314688F382
:103770001288BFF36F8F60680FF025F9A8B986F340
:103780001188BFF36F8FEFE786F31188BFF36F8F58
:10379000E5E7EFF31186314688F31288BFF36F8FA8
:1037A00060680FF010F90028EED0BB691D706368E7
:1037B000BA691B680020C3F844250122C3F84825D4
:1037C000C3F82001D3F82041C3F85801D3F85801B9
:1037D0009A6081F31188BFF36F8FBDE8F08100BF5D
:1037E00076230020F7B50546002201210220FEF7CE
:1037F00001FE0220FEF7E2FD6A6811681369C1F854
:103800002435137D507D927D03431343C1F86C35FD
:103810006E68D6E9004313F0010350D02F6907F119
:1038200008000FF029F9334B984208D03248334A48
:1038300001210EF0FEFD6FF0040003B0F0BD387AF8
:1038400004F10C0204F590710FF00CF9387A01279D
:1038500007FA00F000F0AAFB0823C4F80035B369AA
:10386000C4F844350023C4F84835A760D4F858316B
:10387000002BFBD00021C4F800156B68DC6801AA9E
:1038800020460FF073F8002805DB019B22681979A8
:103890001868FFF77BFE6A6813680821C3F80015F3
:1038A000117A51B9D269C3F834250122C3F83825F9
:1038B000C3F81011D3F810111A600020BDE70822D8
:1038C000C4F80025B269C4F84425C4F8483501237A
:1038D000A360D4F82031002BFBD00023C4F82031A2
:1038E000D4F820310123E3604FF48073C4F804332B
:1038F000BCE700BF0000AD0BCCAC01003FC0010035
:1039000070B5012383400E4ABFF35B8FDC4352E85E
:10391000001F01EA040542E80056002EF7D1BFF36C
:103920005B8F4FF4803282400648C0F80823BFF313
:103930005F8FBFF36F8F0B4214BF0120002070BD5B
:103940009C1B00200010014070B40E49D1E90034E6
:10395000D01AC31844F1000422F07F46C1E90034B4
:10396000A6F50013B3F5400F09D2074B1B681A0ADE
:103970001B069C19054B42F10005C3E9004570BCCC
:103980000CF0CEBFC80B0020A01B0020D00B0020E5
:1039900011B3BFF35B8F0123104A834052E800CF7D
:1039A0004CEA030C42E800C10029F7D1BFF35B8F5A
:1039B0000B4A4FF480338340C2F80433094BBFF302
:1039C0005B8F1B68BFF35B8FC340DB0742BF064BB7
:1039D0004FF40032C3F80021704700BF9C1B002049
:1039E00000100140981B002000E100E00D4B18681A
:1039F000010A0006BFF35F8F0B4BD3F8043518188C
:103A000041F10001B3F5801F0AD2084BD3E900232E
:103A1000904271EB030303D210F1807041F1000179
:103A2000704700BFA01B002000100140D00B0020F9
:103A30002DE9F04F85B016461F469DF840A004467C
:103A4000FFF75EFF0190FFF7D1FFB04271EB070374
:103A500054D23E4B301A67EB0101984271F10001DC
:103A60004FD23B4B03EB0413D3E902239F4208BF21
:103A700096425ED037494FF4803804F1500508FA79
:103A800004F8AD00C1F848832046ADB20EF0CCFF7B
:103A900026F07F4B05F1804504F5A87305F58835C0
:103AA000DC464FF003090293029A2CF07F4341F861
:103AB0002230C1F84483D1F80435274A6FF0020060
:103AC000C01A604420F07F40904232D9286868B123
:103AD000D1F804350393A3EB0B0020F07F40B0F541
:103AE000000F26D920460EF09FFF039BBAF1000F6E
:103AF00007D109EB030C09F10109D5E7BAF1000F71
:103B000009D06FF0150520460199FFF741FF2846BF
:103B100005B0BDE8F08F0123104ABFF35B8FA340CF
:103B200052E8000F184342E800010029F8D1BFF322
:103B30005B8F07490E98230101EB0412C8500F9BBD
:103B40005360C2E902670025DDE700BF0100800085
:103B5000B80B002000100140FDFF7F00981B0020E3
:103B60007FB51C4C1C4BC4F80833C4F848331B4BBE
:103B700000254FF0FF304FF0FF31C4F80855C3E97E
:103B800002014FF48033C4F80433154B02264FF47E
:103B900000320121C4F804631120C3F880212A46B1
:103BA000FEF728FC1120FEF709FC0E4A0123A36052
:103BB000236013600C4B0D4A0093CDE9015500239F
:103BC0002846FFF735FF3046FEF7ACFF284604B025
:103BD00070BD00BF0010014003000F00B80B0020B3
:103BE00000E100E09C1B002049390000FFFF7F003E
:103BF0002DE9F7432F4CD4F8043399070BD5D4F8AB
:103C0000043143B12C4A0023C4F80431D4F8043100
:103C1000136801331360D4F80433DA0329D5BFF3F2
:103C20005B8F264B53E8002F22F0010143E8001080
:103C30000028F7D1BFF35B8FD30702D4D4F840310B
:103C4000BBB10025C4F84051D4F84031FFF7CEFE97
:103C5000EFF31182202383F31288BFF36F8F184B89
:103C6000D3E90267B042B94106D282F31188BFF3AB
:103C70006F8F03B0BDE8F0834FF0FF384FF0FF398E
:103C8000C3E90289D3E900101D604FF48033C4F802
:103C90004833C4F84051D4F8403182F31188BFF35F
:103CA0006F8F0029E5D0009032463B462846884772
:103CB000DFE700BF00100140A01B0020981B002080
:103CC000B80B002030B5431C124C85B005D084429F
:103CD000A8BF0446012CB8BF0124FFF787FE0E4B96
:103CE0000C4DD3E90013401AB0F5000F10D2221882
:103CF000AA4228BF2A4652184FF0000007490091F7
:103D0000CDE9010043F10003FFF792FE05B030BD9D
:103D10002A46F0E7FFFF7F00C80B0020493900006A
:103D200008B5FFF763FE024B1B68C01A08BD00BF51
:103D3000C80B00204FF08053D3F83021082A06D159
:103D4000D3F83431052B02D8024AD05C70470020EA
:103D5000704700BF82C00100024AD2F80034002B35
:103D6000FBD0704700E0014010B54FF08053D3F80E
:103D70003021082A4ED14FF080420021C2F80C11A8
:103D8000C2F81011C2F8381502F54042D3F80414F5
:103D9000C2F82015D3F80814C2F82415D3F80C146F
:103DA000C2F82815D3F81014C2F82C15D3F814143F
:103DB000C2F83015D3F81814C2F83415D3F81C140F
:103DC000C2F84015D3F82014C2F84415D3F82414CF
:103DD000C2F84815D3F82814C2F84C15D3F82C149F
:103DE000C2F85015D3F83014C2F85415D3F834146F
:103DF000C2F86015D3F83814C2F86415D3F83C142F
:103E0000C2F86815D3F84014C2F86C15D3F84434DE
:103E1000C2F87035FFF78EFF18B13A4B3A4AC3F833
:103E20008C26FFF787FF18B1384BFB22C3F8182503
:103E3000FFF780FF70B14FF080414FF08053D1F811
:103E4000E42ED3F8583222F00F0203F00F0313438D
:103E5000C1F8E43EFFF76EFF20B12D4B4FF4007226
:103E6000C3F840264FF08053D3F83031082B1AD1D5
:103E70004FF08043D3F80024D20744BF6FF0010213
:103E8000C3F800244FF08053D3F83431052B02D807
:103E9000204AD35C3BB14FF01023D3F808224FF0F7
:103EA0008043C3F858254FF01023D3F80022002A8E
:103EB00003DBD3F80432002B22DA174901234FF039
:103EC0001020C1F804351224FFF746FFC0F8004265
:103ED000FFF742FFC0F80442FFF73EFF0023C1F89E
:103EE0000435FFF739FFBFF34F8F0C490C4BCA68FD
:103EF00002F4E0621343CB60BFF34F8F00BFFDE7D6
:103F000010BD00BF005000404881030000F0004099
:103F1000009002407CC0010000E0014000ED00E0A4
:103F20000400FA0530B50468CCB1BFF35B8FB4FA76
:103F300084F3C3F11F03DBB201229A4024EA020298
:103F400050E8005FA54204D140E8002CBCF1000F0E
:103F5000F6D1BFF35B8FE6D102480B7030BD02484B
:103F6000FCE700BF0000AD0B0200AD0B10B503680D
:103F7000CB40DB0714D401238B400268BFF35B8F77
:103F800043EA020150E8004F944204D140E8001C8B
:103F9000BCF1000FF6D1BFF35B8FEED1014810BD2D
:103FA0000148FCE70000AD0B0400AD0B014BC3F86A
:103FB0000405704700F00140F7B5044618B1012828
:103FC00023D003B0F0BD4FF080430222C3F8082392
:103FD0000122DA60C3F80401D3F804310646012354
:103FE0008DF8073042F210754FF08047D4B1012CA4
:103FF000E7D1D7F80C3403F48033AEBB83B3012090
:104000000EF02EFD013DF4D12AE04FF08043002256
:10401000C3F808035860C3F80021D3F800310DF14C
:104020000706DCE7D7F8183403F480333EB9002BD9
:10403000C7D001200EF014FD013DF3D1C1E7D7F840
:10404000182402F003023260002BBAD09DF807005A
:10405000012803D10EF004FD013DC7D1012CB0D1E0
:10406000054B00225A71ACE7D7F80C2402F001028C
:104070003270002BEAD1F3E7A41B0020044B1A791D
:1040800022B9012218609A8002487047024870479E
:10409000A41B00200000AD0B0C00AD0B08B5074BB6
:1040A0001B682BB10020FEF797F908B9FEF786F9D7
:1040B0004FF080430022C3F8182508BDA41B002040
:1040C00010B510B1012843D010BD4FF08043D3F894
:1040D0001814D3F81824C80321D502F00303012BC8
:1040E00004D013B10020FFF767FF00234FF0804298
:1040F0000220C2F8183508224FF4827303F180437E
:104100000021196002F180421C6801241460154AE4
:1041100012680AB34FF08043C3F80403D4E7D3F81E
:104120001424D107E1D5D3F81C249207DAD40D4A20
:1041300012681AB10222C3F80423C5E7D3F8042198
:10414000002AFBD00022C3F80421D3F80431BBE7D6
:1041500000224FF48073D1E71A68002AFCD019605E
:104160001B68B1E7A41B002010B54FF08043D3F8C3
:1041700000216AB10022C3F80021D3F800210122F6
:10418000C3F80823114B587910B95A711B68984726
:104190004FF08043D3F8042172B10022C3F8042108
:1041A000D3F80421D3F81824D3F81824920704D1A3
:1041B0000122C3F818259A6010BD0222C3F8082313
:1041C000024BBDE810401B6801201847A41B0020CB
:1041D000036803F01F025B09026004D0012B03484F
:1041E00018BF002070474FF0A040704700030050F8
:1041F000034A430900F01F00D35C1844C0B2704763
:1042000088C0010070B50546FFF7F2FF0C4C08307E
:104210000E4634F81030DA0508D5C3F3432304EB17
:10422000C302284654F8333052689847A3682BB12C
:10423000E26831462846BDE87040184770BD00BFAF
:104240002805002008B5FFF7D3FF034B083033F8EB
:104250001000400B08BD00BF2805002008B5FFF77F
:10426000C7FF034B083033F81000C0F3400008BD0F
:104270002805002008B5FFF7BBFF034B083033F8D3
:104280001000C0F3401008BD28050020034611F0BF
:10429000010010B5CCB20DD1A207C4F3400012D575
:1042A000094AD2F820055860C2F82005003818BF26
:1042B000012008E04FF0A041D1F820251A60C1F894
:1042C0002025002AE8D010BD0003005010B5FFF7EC
:1042D0008FFF124A083032F81030D9051CD5C3F3CD
:1042E000432123F4F85322F8103002F10E04002089
:1042F00034F8023F13F4807F03D0C3F34323994281
:104300000AD001303028F3D1002342F8313004487C
:10431000BDE81040FFF72ABE10BD00BF28050020F1
:10432000A0050020F0B505460020044601260746FA
:104330008C420BD1114BD3F87C2132B10022C3F84F
:104340007C21D3F87C3140F00040F0BDE3B29B000B
:1043500003F580729B0806FA03F31D420BD002F1AD
:10436000804202F5C042D2F800C0BCF1000F02D07A
:104370001760126818430134DAE700BF006000409C
:10438000F7B506460846FFF733FF194F00F1080559
:104390000C4637F81530DB0727D530460EF0C8FB42
:1043A0002046FFF767FF40B12046FFF74BFF31681B
:1043B00000F5A270002341F820302046FFF786FF69
:1043C000002301A827F815300194FFF701FF019B96
:1043D00000EB8300074BD0F80027134043F00203A3
:1043E000C0F80037044803B0F0BD0448FBE700BF45
:1043F00028050020F0F8FCFF0000AD0B0400AD0B19
:104400002DE9FF41164680460846FFF7F1FE0D46AE
:104410003168044609B32846FFF720FF18B1284643
:10442000FFF728FF10BB0023CDE900338DF80E30D5
:104430008DF80F300DF10F020B4628460DF10E01DD
:104440000EF01EFB474A04F1080132F8113023F048
:10445000020343F0010322F81130736863B3284666
:104460001F785968FFF7FAFE10B1D1B13E4826E037
:104470003C4A04F1080032F8103023F02003DB043A
:10448000DB0C22F8103061B1032FEFD87168496856
:1044900091F800C0D8F80010A7B90CF5A27C41F83B
:1044A0002C70304A04F1080132F8113023F01C035B
:1044B00043EA870322F81130B3684BBB2B4804B0A2
:1044C000BDE8F08101EB8C0143EA4C33D1F810E5F3
:1044D0002EF0030EC1F810E5D8F8001001EB8C0E99
:1044E00043F02003DEF8101522F8103021F44F318C
:1044F00021F44071CEF810152902DEF8108501F480
:104500007C5141EA074141EA0801CEF81015C8E79D
:10451000D3E900672846FFF7D9FE002ECED0114D13
:10452000D5E90023964203D19F4201D1002209E040
:104530000F480DF10F01FFF7F5FC0C4B9842BED16F
:104540009DF80F2045F8326005EBC20308345F6028
:1045500035F8143043EA422343F4807325F81430CD
:10456000ACE700BF280500200400AD0B0000AD0B38
:10457000A00500202DE9F0430C4685B0804620467A
:1045800011461E46FFF734FE054629B32046FFF7C5
:1045900065FE18B92046FFF76DFE18BB314F05F1D7
:1045A000080937F8193013F01C0F02D04B78012B93
:1045B00018D001238DF80F300023CDE900134A1CD9
:1045C0008B1C20460DF10F010EF05AFA37F8193006
:1045D00043F0030327F81930002E41D02046FFF79F
:1045E0003DFE18B9204805B0BDE8F08396F800C03C
:1045F000D8F800301B4F0CF5A272002143F82210AE
:1046000005F1080237F8121021F02001C904C90C85
:1046100027F8121075781DB3D8F80000B67800EBB3
:104620008C002D04D0F8103523F4991323F4F8539B
:10463000C0F81035230203F47C5305F440353605E9
:10464000D0F810E52B4306F4801641EA4C31334391
:1046500041F0200143EA0E0327F81210C0F810358C
:104660000248C0E7280500200400AD0B0000AD0B98
:10467000014BC3E9021270472805002010B5084617
:104680001446FFF7F7FD50B10846FFF7B1FD054BA3
:10469000083033F8103004485B0B237010BD03481A
:1046A000FCE700BF280500200000AD0B0400AD0BA7
:1046B00070B5164D95F8804006462CBB2146602209
:1046C00005F1100016F010F930682E6F21468E4269
:1046D0000ED10023C0F87C31D0F87C3140F3073094
:1046E000FDF76CFE01230A4885F88030AB6770BD8A
:1046F000CBB29B0003F580727C2B08BF845001F184
:10470000010108BF8358E2E70248F0E728050020CE
:104710000000AD0B0C00AD0B034B93F8800000388C
:1047200018BF0120704700BF280500200148FFF78F
:104730001DBC00BF9C0500200148FFF7F3BB00BF74
:104740009C05002073B503681646D3F80423002A9D
:10475000A8BF4FF000420546A8BFC3F8042308468F
:104760000C46FFF787FD00B30846FFF777FD0146CB
:10477000D8B92046FFF766FD04B2A40004F58072A4
:10478000034628688150296882582144D1F81025B1
:1047900042F00102C1F810252EB12968012202FA67
:1047A00003F3C1F8043302B070BD2046FFF720FDCB
:1047B0000F4B083033F81030C3F38203042B12D0B0
:1047C000052B12D001A80194FFF702FD019AD0F841
:1047D0001035D34003F00103991C204602B0BDE818
:1047E00070400EF096B90321F7E70221F5E700BF0C
:1047F000280500202DE9F04F694BDFF8A881D3F898
:104800000403D8F87010C0B289B040F00040FFF740
:1048100089FD051E2FDAC24600235AF87C1F06A820
:10482000CDE90633FFF732FD5F4B01930DF1180917
:104830004FF0000B019A12F8013B0192DA0803F0E5
:1048400007031AF8022022FA03F3DA071CD409F14D
:104850000409BBF1000F14D0D8F870104FF00040DD
:10486000FFF760FDD8F87C1006A8FFF70FFD0028C1
:10487000DAD125F000450124002D79D109B0BDE839
:10488000F08F4FF0010BD5E7484B5B440293D9F80A
:1048900000100029DBD0029B91FAA1F11C78B1FA3B
:1048A00081F141EA44142046FFF7A2FC0830059448
:1048B00038F81070C808BB0819F80020039301F0FD
:1048C0000701012303FA01F122EA010209F800209D
:1048D00005A8FFF77DFC059A039B02F5E072C7F37C
:1048E000820650F822205B073746C2F3014224D5E6
:1048F00020463946D6B2FFF785FC05A80594FFF798
:1049000067FC059B03F5E07350F82330C3F30143C4
:104910009E4207D1002120460EF0FBF8314620468A
:104920000EF0F7F805A80594FFF752FC059B01224D
:1049300002FA03F3C0F82035A9E7022A0CD10321BB
:1049400020460EF0E6F806F00503012BEAD13946C1
:104950002046FFF757FCE5E70221204603920EF0C0
:10496000D8F8032EF3D0039A032ADBD1022EEDE709
:1049700095FAA5F3B3FA83F304FA03F29B0003F16B
:10498000804303F5C04325EA0205D3F81005D3F8A8
:104990001015C0F30520C1F30141FFF733FC6BE7AD
:1049A000006000402805002098C0010098C0010068
:1049B00001460148FFF7B6BAAC05002030B500F05B
:1049C0001F04400911D0012812D10C4800EB8400CB
:1049D0001B02D0F800570A4C43EA82022C4042EAFC
:1049E00041012143C0F8001730BD4FF0A040EDE772
:1049F00004F5E074002353F82430FFDE0003005078
:104A0000F0F8FCFFCB7B10B433B9D1E90042036866
:104A1000C3F80845C3F80C2503688A68C3F8242541
:104A200003793C225343054AD3582BB1006810BC8C
:104A300040F30730FDF7C2BC10BC7047AC1B002030
:104A400013B53B4B01930023C0F80431D0F8042187
:104A5000C0F82431D0F82421C0F81C31D0F81C2132
:104A6000C0F80831D0F80821C0F800324B6381F853
:104A70002F300123036291F82D209A4218BF8360E2
:104A80004B6B8A6A934204460ED24A6AD35CC0F8E2
:104A90001C350B6803B340F286238B608B68254876
:104AA000C4F8043302B010BD91F82C3013B10123C7
:104AB000C361EEE70B6A13F0400F4FF0010316BF1E
:104AC000C361436181F82D30E3E720460EF058F8CA
:104AD00028B1019B013B0193019B002BF5DC91F870
:104AE0002F305BB91348019B002BDBDC0023C4F89B
:104AF000003505231048C4F80035D3E7D4F8C43492
:104B0000C4F8C4348BB10D4A0B4813F0010F18BF21
:104B1000104613F0020F02F1010218BF104613F005
:104B2000040F074B18BF1846DDE70348DBE700BF5B
:104B3000A08601000000AD0B0100AD0B0000AE0B24
:104B40000200AE0B13B5334B01930023C0F80431C0
:104B5000D0F80421C0F82431D0F82421C0F81C3149
:104B6000D0F81C21C0F80831D0F808214B6381F837
:104B70002F308B6A012B044617D10B6A5B0614D4C5
:104B80000223C4F800320123236291F82D20022A67
:104B900018BF23600B688BB140F286238B608B6853
:104BA0001D48C4F8043302B010BD0123E9E72046D4
:104BB0000DF0E6FF28B1019B013B0193019B002B07
:104BC000F5DC91F82F305BB91348019B002BEADC30
:104BD0000023C4F8003505231048C4F80035E2E787
:104BE000D4F8C434C4F8C4348BB10D4A0B4813F064
:104BF000010F18BF104613F0020F02F1010218BF97
:104C0000104613F0040F074B18BF1846DDE70348A2
:104C1000DBE700BFA08601000000AD0B0100AD0B7B
:104C20000000AE0B0200AE0B2DE9F84390F80490A3
:104C30001C4E07463C2000FB09F035180C4695F841
:104C40002E1061BBA96032506B6085F82D1085F87D
:104C5000311085F83010CCB1637B85F8383094F88A
:104C60000E8085F83980B8F1000F0BD1206806233B
:104C700003224146FFF7A2FE606806230322414655
:104C8000FFF79CFE21463846FFF7BCFE3C2303FBA2
:104C900009660548012386F82E30BDE8F8830348ED
:104CA000FBE700BFAC1B00200000AD0B0C00AD0B00
:104CB000036802790521C3F80015044B3C2101FB70
:104CC0000233022283F82E20704700BFAC1B002065
:104CD00003680B4A0179C3F80823D3F8002222F0B5
:104CE0000302C3F800220022C3F80025054B3C2034
:104CF00000FB0133012183F82E1083F83020704728
:104D000086420400AC1B00202DE9F047314F0479A6
:104D1000D0F800903C2303FB04730D4693F82D302C
:104D2000012B944604D10B78012B06D12A4811E0BF
:104D3000022B02D10B78012BF8D13C26274BC9F866
:104D4000083306FB047696F830302BB1B36824485C
:104D5000C9F80433BDE8F0878CF00403C3F3800383
:104D600086F83030C6F820C0A846B8E80F0006F133
:104D70000C0EAEE80F00D8F80030CEF800306B68AB
:104D8000B362EB6873626B78C9F888352B78C4EB33
:104D9000041A012B07EB8A0A17D09BB9CCF3401CED
:104DA0003C2303FB04735146484683F82CC0FFF7AD
:104DB00047FE3C235C433A193B59002BCAD182F889
:104DC0003030C7E74FF0010CEAE751464846FFF79D
:104DD000B9FEEEE7AC1B00200500AD0B86420400D7
:104DE0000B00AD0BF0B5324C324887B021460DF0C8
:104DF000C7FE002859D194F82F70FFB9227B931E6B
:104E0000012B1BD8606AA369984217D1E3696362DA
:104E10006369A362236A274884F82D70C3F34013A3
:104E2000032A84F82C3004D107B0BDE8F040FFF726
:104E300007BE07B0BDE8F040FFF784BE1E4E0FCEA0
:104E400001AD0FC533682B6047B31A4AD2F8C4349A
:104E5000C2F8C43413F0020106D001238DF80030EB
:104E6000002384F8303007E013F0040209D0022355
:104E70008DF8003084F83010D4E900316846984746
:104E800013E013F0010305D003238DF8003084F8FC
:104E90003020F1E704228DF80020E2E7236A8DF844
:104EA00000705B0784F83070E6D507B0F0BD00BF36
:104EB000AC1B002000300040B81B0020036803F04A
:104EC0001F025B09026004D0012B034818BF0020B9
:104ED00070474FF0A040704700030050F7B50646FA
:104EE0000DF0E6FE08460DF0E3FE01A80196FFF77F
:104EF000E5FF019B2E4D00EB83000C46D0F80037F8
:104F0000019440F20D612B400B43C0F8003701A81B
:104F1000FFF7D4FF019B00EB83000127D0F8003797
:104F20002B400B43C0F8003704200DF099FD0925F4
:104F300001A80194FFF7C2FF019AD0F81035D340C1
:104F4000DB0715D401A80196FFF7B8FF019B07FA0C
:104F500003F3C0F80C3504200DF082FD30460DF04F
:104F6000A7FE013D04200DF07BFD15F0FF05DFD10C
:104F700001A80194FFF7A2FF019A01239340C0F812
:104F80000C3504200DF06CFD20460DF091FE042040
:104F90000DF066FD01A80194FFF790FF019AD0F88B
:104FA00010350448D34003F00103C01A03B0F0BD2C
:104FB000F0F8FCFF0100AD0B13B5044670B908F022
:104FC00071FA044650B9064B00930649064B362247
:104FD000022008F097FE204602B010BD2469FAE7CF
:104FE000CEC001009AC0010018C2010013B50446EA
:104FF00070B908F057FA044650B9064B00930649B9
:10500000064B4722022008F07DFE204602B010BD6C
:105010006469FAE7FDC001009AC0010003C2010003
:1050200013B5044670B908F03DFA044650B9064B72
:1050300000930649064B6022022008F063FE2046DA
:1050400002B010BDE469FAE72EC101009AC0010068
:10505000EDC1010013B5044670B908F023FA044607
:1050600050B9064B00930649064B7122022008F006
:1050700049FE204602B010BD246AFAE767C101006C
:105080009AC00100D7C1010013B5044678B908F0F1
:1050900009FA044658B9094B00930220084B094904
:1050A0004FF4DF7208F02EFE204602B010BDD4F897
:1050B00054010028D4BF00200120F6E7A1C101005F
:1050C000B7C101009AC0010070B5044600F09CF918
:1050D000B8B96368002198680DF0FDFD0E460546DD
:1050E000E5B9214628460DF003FE024698B16368F3
:1050F000294698680DF0EFFD002844D1012A4FD0D1
:105100000AE0006883680BB1217A9847237E9807EC
:105110005FD4D907DDD50022104670BD2B683BB99E
:1051200063680136986831460DF0D5FD0546D7E72E
:1051300095F908202B7A002AF2DA802B04D0227A03
:1051400023F080039342EBD16B68E3602B68204629
:105150009847237E9A073CD4DB07E1D5DBE790F93B
:105160000820037A002A13DB13B1227A9A420FD166
:105170004368E360036820469847237E9E0728D44F
:10518000D80705D5C7E7012AC6D10368002BE6D1A9
:1051900063680135986829460DF09DFD0028F4D11B
:1051A00060684368ABB1237E590712D4237A233B4E
:1051B000012B10D94FF480410EF070F848B1237ADA
:1051C000113BDBB21B2B06D8084A22FA03F3DA079D
:1051D00001D50122A0E763685B6863602046FFF7A2
:1051E00073FF431E5A425A4196E700BFFF270F0B39
:1051F00010B588B0B8B10023CDE904329DF81C3059
:105200000A4C8DF80C1023F00703CDE901008DF84E
:105210001C3001A8236806932060FFF755FF069B0A
:10522000236008B010BD0120FBE700BFE81B002091
:10523000074B1B6803B970475A68824202D01A684C
:10524000824203D11A7E42F001021A765B69F1E7CD
:10525000E81B002007B5037A013B0F2B03D8006938
:1052600003B05DF804FB054B00930220044B054995
:105270004FF48D7208F046FD0020F1E7B1C2010045
:1052800007C301002CC2010007B5037A143B052BAC
:1052900003D8006903B05DF804FB054B00930220BE
:1052A000044B05494FF49B7208F02CFD0020F1E7F8
:1052B000B1C20100F1C201002CC2010007B5027A9F
:1052C000132A0B4609D10269B2F900109942B8BFFE
:1052D0001946118003B05DF804FB054B00930549A6
:1052E000054B40F26512022008F00CFDF2E700BF0A
:1052F000B1C201002CC20100D6C201000148202128
:1053000014F0BABCF01D0020014B1868704700BFB4
:10531000EC1B002010B50446064A07490DF02EFD8F
:1053200063692BB120B920460121BDE81040184720
:1053300010BD00BFCB9D0100BF9D010010B5074906
:10534000074A04460DF01AFD6369014623B118B9F6
:105350002046BDE81040184710BD00BFC59D0100A4
:10536000D39D01007FB50C460546002840D0084675
:105370000DF08AFD284614F022FD014628BB204688
:105380000DF09AFF40B1A3689B6853B1DB681B68BE
:10539000A34206D10DF064FDA36813B9204600F0C6
:1053A000DDFAA36828469D6014F0B2FC064698B961
:1053B000104B0293104B0193104B00931049114B6B
:1053C0008F22032008F09EFCFEE70B68A3420FD05B
:1053D000284614F0FAFCD0E70460284614F0EFFCED
:1053E000864205D1284604B0BDE870400DF038BDB6
:1053F00004B070BD61C201005DC3010091C2010033
:105400001AC301006AC30100014B1868704700BF4E
:10541000F01B00202DE9F047A2B005460DF082FCFC
:10542000064628460DF07AFC122E044653D1284633
:105430000DF07CFC0378022B054608D017220021D2
:1054400020460FF015FD064620B102232B7022B036
:10545000BDE8F08701460B2220460FF009FD6922C6
:105460000FFA80F8314620460FF002FD6A22074607
:10547000314620460FF0FCFCB4F91620B4F918E0D0
:10548000B4F91AC0A18ABBB280B2C91A121A734405
:105490006044ADF84010ADF84220ADF84430ADF8AE
:1054A00046006868424610A914F01DFA08B90123A5
:1054B000CCE72122314620460FF0DAFCC0B2FC28AE
:1054C000F5D96022314620460FF0D2FCC0B2FC284C
:1054D000EDD92E70BBE7152E40F086802846FFF7E9
:1054E000D3FE04AF0646384603F0C6FE3422002140
:1054F00020460FF0BDFC28B19DF82D3043F001038C
:105500008DF82D303A46002120460EF0F8F8692239
:10551000002120460FF0ACFC6A22054600212046FF
:105520000FF0A6FCB4F91AC0B4F91620A18AB4F998
:1055300018E0ABB280B2121AC91A60447344ADF8D5
:105540000810ADF80E00314610A80025ADF80C305B
:10555000ADF80A200DF108080EF0D8FAC14B1193EE
:1055600010AA1A21204612951497CDF84C801D954B
:10557000FFF73EFE1722294620460FF079FC68B35C
:10558000BDF9103053B3424639463046DDF81CA011
:10559000079510F006FE182008F074FC04F11401C1
:1055A0008146BDF910202B4603F034FC04F59071C0
:1055B000484603F0A1FABAF1000F05D110AA1B2149
:1055C0002046FFF715FE42E78DF813508DF82C505A
:1055D0008DF834508DF83E50CDF81CA04246394627
:1055E000304610F0DEFDE9E7182E7FF430AF284694
:1055F000FFF74AFE02AA0646694620460EF0D9FF8A
:10560000684614F043F8002800F0BC8004AD28463A
:1056100003F032FE21224FF4803120460FF028FCA7
:10562000C0B202288DF8130007D920224FF4803130
:1056300020460FF01DFC8DF8140031224FF480310C
:1056400020460FF015FCC0B202288DF82C0013D9AB
:1056500032224FF4803120460FF00AFC00B20028BD
:10566000ADF82A0040F3F58030224FF48031204617
:105670000FF0FEFB8DF8280045224FF480312046C4
:105680000FF0F6FBC0B202288DF83E001BD9402275
:105690004FF4803120460FF0EBFB00B20028ADF84C
:1056A000360040F3DA8043224FF4803120460FF079
:1056B000DFFB4422ADF83C004FF4803120460FF070
:1056C000D7FB8DF835004FF4803120460FF07AFE7D
:1056D000FC280DD89DF8133013FB00F31B128DF836
:1056E00013304343C3F307238DF82C308DF83E303D
:1056F0009DF82C209DF8133013439DF83E20134352
:1057000046D00B224FF4803120460FF0B1FB3146DA
:10571000ADF8100010A80EF0F9F9524B11930223C6
:10572000129368464FF4803314951D9313F0AEFF27
:1057300080B110AA1A212046CDF84CD0FFF758FDB1
:105740006A462946304610F02CFD10AA1B2120463F
:10575000FFF74EFD02A813F099FFC8B102AB10AAE3
:105760001A2120461393FFF743FD02AB1A46294640
:105770003046139310F015FD10AA1B212046FFF7A9
:1057800037FD05E002A813F081FF00287FF43EAF4B
:105790001722002120460FF06BFB50B104F59070EA
:1057A00003F002FA054620B110F0BBFC284608F0D1
:1057B000E9FB3422002120460FF05AFB00283FF479
:1057C00046AE0DF110080025404603F055FD424657
:1057D000294620468DF813508DF825508DF8345009
:1057E0008DF83E500DF08BFF6922294620460FF0C0
:1057F0003FFB6A220746294620460FF039FBB4F9E1
:105800001AC0B4F91620A18AB4F918E0BBB280B26C
:10581000121AC91A60447344ADF80810ADF80E00AE
:10582000314610A8ADF80C30ADF80A200EF06EF934
:105830000C4B11930123129310AA02AB1A2120469C
:10584000CDF8508013931D95FFF7D2FC02AA414674
:10585000C6E600238DF82C300EE700238DF83E308D
:1058600031E700BFD8AF010013B5164C23784BB118
:10587000154B00931549164B6622022008F042FA98
:1058800002B010BD14F0EDFA08F0BAFD08F0A8F867
:1058900007F01EFFFFF732FD0FF0CBFE01F0C4F959
:1058A0000C484FF4B47114F0E7F90B485C2114F084
:1058B000E3F90FF032FE04F09FF913F02DFE0123FF
:1058C0002370DDE76B220020AEC301007BC3010023
:1058D000F7C30100201E0020141E002010B5014651
:1058E000034800F073F804460DF0B1FE204610BDE9
:1058F000D8AF010010B508460C46FFF799FC002010
:1059000001F098F9144A002120460FF074FB0120A1
:1059100001F090F90021204607F00AFF20460DF023
:10592000CBFC10B120460DF0AFFAA3689BB118680C
:1059300020B108F077FAA36800221A60A368D8683B
:1059400020B108F06FFAA3680022DA60A06808F0BE
:1059500069FA0023A36010BDFFFF0F0030B5856812
:1059600085B0044625BB134A13681C20013313601D
:1059700008F050FAA06068B90F4B02930F4B0193E7
:105980000F4B00930F49104B4FF4B772032008F0F0
:10599000B9F9FEE71C22294614F0A6FFA268537E3F
:1059A00043F00F035376A268137E43F0030313768C
:1059B00005B030BDF41B002061C20100C6C3010068
:1059C00091C201007BC30100DDC30100F7B50D46A4
:1059D0003B49074602463AB19669314202D0C6F3C6
:1059E0000F1602E01268F6E71646304608F012FA83
:1059F0000446B0B13246002114F076FFC4E90075C8
:105A0000002D36D107F04EFD054670B92D4B0093A1
:105A100002202D4B2D493A2208F074F9204608F057
:105A200001FA0024204603B0F0BDC06898B90420F4
:105A300008F0F0F90123E86004606B6200256561FD
:105A4000284607F035FD01382083284607F040FD41
:105A500001386083E6E7696A01316962890008F00C
:105A6000EBF96B6AE86003F18043013B40F82340A7
:105A7000E4E7AB6813B92846FFF770FFAE683368F8
:105A800053B9042008F0C6F93060AB681B681C608D
:105A9000AB6801225A60C5E7736801337360AE6872
:105AA00071683068890008F0C7F93060AA685368E7
:105AB000126803F18043013B42F82340B2E700BF84
:105AC000F0FF0F0038C4010072C40100FFC30100E1
:105AD00038B50B4905460DF0E7FB044608B1002038
